30100  2310020157831250                                                                                                                                                                        23102002                                                  0
23400091231231231 OSNOVNA SKOLA VARAZDIN             051231002000000001VARAZDIN                           000  2502340009N                                                                     23102002                                                  3
1023900011111220001 PEKARA ZRNO                        TRNOVEC   000000025500099                      053005798               33PLACANJE PREMA FAKTURI              N                                239000110000923102002                               5
1023910041223344001 GRADSKA CISTOCA DOO                IVANEC    000000005500099                      99                      33PLACANJE USLUGE                     N                                239100410000923102002                               5
1023900011110002121 PAPIRNICA ALFA                     ZAGREB    000000009000099                      99                      33PLACANJE PREMA FAKTURI              N                                239000110000923102002                               5
1023900011002233002 INFO USLUGA                        ZAGREB    000000011000099                      053005798               33PLACANJE PREMA FAKTURI              N                                239000110000923102002                               5
1023900011002233002 NASA DJECA                         VARAZDIN  000000006000099                      99                      33PLACANJE PREMA FAKTURI              N                                239100410000923102002                               5
1023900011111000022 MEDO - TRGOVINA                    NOVI MAROF000000025000099                      99                      33PLACANJE USLUGE                     N                                239000110000923102002                               5
1023900011111220001 NADA - TRGOVINA                    ZAGREB    000000008000099                      053005798               33PLACANJE PREMA FAKTURI              N                                239000110000923102002                               5
1023910041220043001 ART CAFEE                          VARAZDIN  000000012000099                      99                      33PLACANJE USLUGE                     N                                239100410000923102002                               5
1023900011110002121 PARK - HOTELSKO PODUZECE           ZAGREB    000000005000099                      99                      33PLACANJE PREMA FAKTURI              N                                239000110000923102002                               5
1023900011002233002 INFO USLUGA                        ZAGREB    000000015000099                      053005798               33PLACANJE PREMA FAKTURI              N                                239000110000923102002                               5
23400091231231231 OSNOVNA SKOLA VARAZDIN             0512310020000000020000000000000012200000000000000000000000000007800000001000010VARAZDIN                           001++                   231020022340009N                                          7
30100  231002015783100001000014                                                                                                                                                                23102002                                                  9